{
  "_format": "hh-sol-artifact-1",
  "contractName": "WavePortal",
  "sourceName": "contracts/WavePortal.sol",
  "abi": [
    {
      "inputs": [],
      "stateMutability": "nonpayable",
      "type": "constructor"
    },
    {
      "anonymous": false,
      "inputs": [
        {
          "indexed": true,
          "internalType": "address",
          "name": "from",
          "type": "address"
        },
        {
          "indexed": false,
          "internalType": "uint256",
          "name": "timestamp",
          "type": "uint256"
        },
        {
          "indexed": false,
          "internalType": "string",
          "name": "message",
          "type": "string"
        }
      ],
      "name": "NewPet",
      "type": "event"
    },
    {
      "inputs": [],
      "name": "getAllPets",
      "outputs": [
        {
          "components": [
            {
              "internalType": "address",
              "name": "petter",
              "type": "address"
            },
            {
              "internalType": "string",
              "name": "message",
              "type": "string"
            },
            {
              "internalType": "uint256",
              "name": "timestamp",
              "type": "uint256"
            }
          ],
          "internalType": "struct WavePortal.Pet[]",
          "name": "",
          "type": "tuple[]"
        }
      ],
      "stateMutability": "view",
      "type": "function"
    },
    {
      "inputs": [],
      "name": "getTotalPets",
      "outputs": [
        {
          "internalType": "uint256",
          "name": "",
          "type": "uint256"
        }
      ],
      "stateMutability": "view",
      "type": "function"
    },
    {
      "inputs": [
        {
          "internalType": "string",
          "name": "_message",
          "type": "string"
        }
      ],
      "name": "petAFrog",
      "outputs": [],
      "stateMutability": "nonpayable",
      "type": "function"
    }
  ],
  "bytecode": "0x608060405234801561001057600080fd5b5061003d60405180606001604052806031815260200162000c606031913961004260201b6103591760201c565b6101c5565b6100de816040516024016100569190610143565b6040516020818303038152906040527f41304fac000000000000000000000000000000000000000000000000000000007bffffffffffffffffffffffffffffffffffffffffffffffffffffffff19166020820180517bffffffffffffffffffffffffffffffffffffffffffffffffffffffff83818316178352505050506100e160201b60201c565b50565b60008151905060006a636f6e736f6c652e6c6f679050602083016000808483855afa5050505050565b600061011582610165565b61011f8185610170565b935061012f818560208601610181565b610138816101b4565b840191505092915050565b6000602082019050818103600083015261015d818461010a565b905092915050565b600081519050919050565b600082825260208201905092915050565b60005b8381101561019f578082015181840152602081019050610184565b838111156101ae576000848401525b50505050565b6000601f19601f8301169050919050565b610a8b80620001d56000396000f3fe608060405234801561001057600080fd5b50600436106100415760003560e01c80635b236d971461004657806380f03fa614610064578063e86bdbb814610082575b600080fd5b61004e61009e565b60405161005b919061078a565b60405180910390f35b61006c6101ef565b60405161007991906107fe565b60405180910390f35b61009c600480360381019061009791906105c2565b6101fb565b005b60606000805480602002602001604051908101604052809291908181526020016000905b828210156101e657838290600052602060002090600302016040518060600160405290816000820160009054906101000a900473ffffffffffffffffffffffffffffffffffffffff1673ffffffffffffffffffffffffffffffffffffffff1673ffffffffffffffffffffffffffffffffffffffff16815260200160018201805461014b90610983565b80601f016020809104026020016040519081016040528092919081815260200182805461017790610983565b80156101c45780601f10610199576101008083540402835291602001916101c4565b820191906000526020600020905b8154815290600101906020018083116101a757829003601f168201915b50505050508152602001600282015481525050815260200190600101906100c2565b50505050905090565b60008080549050905090565b600060405180606001604052803373ffffffffffffffffffffffffffffffffffffffff16815260200183815260200142815250908060018154018082558091505060019003906000526020600020906003020160009091909190915060008201518160000160006101000a81548173ffffffffffffffffffffffffffffffffffffffff021916908373ffffffffffffffffffffffffffffffffffffffff16021790555060208201518160010190805190602001906102ba9291906104b7565b506040820151816002015550506103066040518060400160405280601281526020017f25732073656e742061206d6573736167652e0000000000000000000000000000815250336103f2565b3373ffffffffffffffffffffffffffffffffffffffff167f4302f7db7d1bf35eb172c360f71ecc4190107498ba1e26e46f440b981aad2f77428360405161034e929190610819565b60405180910390a250565b6103ef8160405160240161036d91906107ac565b6040516020818303038152906040527f41304fac000000000000000000000000000000000000000000000000000000007bffffffffffffffffffffffffffffffffffffffffffffffffffffffff19166020820180517bffffffffffffffffffffffffffffffffffffffffffffffffffffffff838183161783525050505061048e565b50565b61048a82826040516024016104089291906107ce565b6040516020818303038152906040527f319af333000000000000000000000000000000000000000000000000000000007bffffffffffffffffffffffffffffffffffffffffffffffffffffffff19166020820180517bffffffffffffffffffffffffffffffffffffffffffffffffffffffff838183161783525050505061048e565b5050565b60008151905060006a636f6e736f6c652e6c6f679050602083016000808483855afa5050505050565b8280546104c390610983565b90600052602060002090601f0160209004810192826104e5576000855561052c565b82601f106104fe57805160ff191683800117855561052c565b8280016001018555821561052c579182015b8281111561052b578251825591602001919060010190610510565b5b509050610539919061053d565b5090565b5b8082111561055657600081600090555060010161053e565b5090565b600061056d6105688461086e565b610849565b90508281526020810184848401111561058557600080fd5b610590848285610941565b509392505050565b600082601f8301126105a957600080fd5b81356105b984826020860161055a565b91505092915050565b6000602082840312156105d457600080fd5b600082013567ffffffffffffffff8111156105ee57600080fd5b6105fa84828501610598565b91505092915050565b600061060f838361071c565b905092915050565b61062081610905565b82525050565b61062f81610905565b82525050565b6000610640826108af565b61064a81856108d2565b93508360208202850161065c8561089f565b8060005b8581101561069857848403895281516106798582610603565b9450610684836108c5565b925060208a01995050600181019050610660565b50829750879550505050505092915050565b60006106b5826108ba565b6106bf81856108e3565b93506106cf818560208601610950565b6106d881610a44565b840191505092915050565b60006106ee826108ba565b6106f881856108f4565b9350610708818560208601610950565b61071181610a44565b840191505092915050565b60006060830160008301516107346000860182610617565b506020830151848203602086015261074c82826106aa565b9150506040830151610761604086018261076c565b508091505092915050565b61077581610937565b82525050565b61078481610937565b82525050565b600060208201905081810360008301526107a48184610635565b905092915050565b600060208201905081810360008301526107c681846106e3565b905092915050565b600060408201905081810360008301526107e881856106e3565b90506107f76020830184610626565b9392505050565b6000602082019050610813600083018461077b565b92915050565b600060408201905061082e600083018561077b565b818103602083015261084081846106e3565b90509392505050565b6000610853610864565b905061085f82826109b5565b919050565b6000604051905090565b600067ffffffffffffffff82111561088957610888610a15565b5b61089282610a44565b9050602081019050919050565b6000819050602082019050919050565b600081519050919050565b600081519050919050565b6000602082019050919050565b600082825260208201905092915050565b600082825260208201905092915050565b600082825260208201905092915050565b600061091082610917565b9050919050565b600073ffffffffffffffffffffffffffffffffffffffff82169050919050565b6000819050919050565b82818337600083830152505050565b60005b8381101561096e578082015181840152602081019050610953565b8381111561097d576000848401525b50505050565b6000600282049050600182168061099b57607f821691505b602082108114156109af576109ae6109e6565b5b50919050565b6109be82610a44565b810181811067ffffffffffffffff821117156109dd576109dc610a15565b5b80604052505050565b7f4e487b7100000000000000000000000000000000000000000000000000000000600052602260045260246000fd5b7f4e487b7100000000000000000000000000000000000000000000000000000000600052604160045260246000fd5b6000601f19601f830116905091905056fea264697066735822122086c5773ed07897f5f84f18161aa125bedfcf26fef43d3800432984319b685fd764736f6c63430008040033456261742721205961207a616465706c6f696c20736d6172742d636f6e7472616374206e6120626c6f636b636861696e21",
  "linkReferences": {},
  "deployedLinkReferences": {}
}