{
  "_format": "hh-sol-artifact-1",
  "contractName": "WavePortal",
  "sourceName": "contracts/WavePortal.sol",
  "abi": [
    {
      "inputs": [],
      "stateMutability": "payable",
      "type": "constructor"
    },
    {
      "anonymous": false,
      "inputs": [
        {
          "indexed": true,
          "internalType": "address",
          "name": "from",
          "type": "address"
        },
        {
          "indexed": false,
          "internalType": "uint256",
          "name": "timestamp",
          "type": "uint256"
        },
        {
          "indexed": false,
          "internalType": "string",
          "name": "message",
          "type": "string"
        }
      ],
      "name": "NewPet",
      "type": "event"
    },
    {
      "inputs": [],
      "name": "getAllPets",
      "outputs": [
        {
          "components": [
            {
              "internalType": "address",
              "name": "petter",
              "type": "address"
            },
            {
              "internalType": "string",
              "name": "message",
              "type": "string"
            },
            {
              "internalType": "uint256",
              "name": "timestamp",
              "type": "uint256"
            }
          ],
          "internalType": "struct WavePortal.Pet[]",
          "name": "",
          "type": "tuple[]"
        }
      ],
      "stateMutability": "view",
      "type": "function"
    },
    {
      "inputs": [],
      "name": "getTotalPets",
      "outputs": [
        {
          "internalType": "uint256",
          "name": "",
          "type": "uint256"
        }
      ],
      "stateMutability": "view",
      "type": "function"
    },
    {
      "inputs": [
        {
          "internalType": "address",
          "name": "",
          "type": "address"
        }
      ],
      "name": "lastWavedAt",
      "outputs": [
        {
          "internalType": "uint256",
          "name": "",
          "type": "uint256"
        }
      ],
      "stateMutability": "view",
      "type": "function"
    },
    {
      "inputs": [
        {
          "internalType": "string",
          "name": "_message",
          "type": "string"
        }
      ],
      "name": "petAFrog",
      "outputs": [],
      "stateMutability": "payable",
      "type": "function"
    }
  ],
  "bytecode": "0x608060405262000033604051806060016040528060318152602001620012a5603191396200005b60201b620005d31760201c565b60644442620000439190620001a8565b6200004f919062000245565b600081905550620002ec565b620000fb8160405160240162000072919062000168565b6040516020818303038152906040527f41304fac000000000000000000000000000000000000000000000000000000007bffffffffffffffffffffffffffffffffffffffffffffffffffffffff19166020820180517bffffffffffffffffffffffffffffffffffffffffffffffffffffffff8381831617835250505050620000fe60201b60201c565b50565b60008151905060006a636f6e736f6c652e6c6f679050602083016000808483855afa5050505050565b600062000134826200018c565b62000140818562000197565b9350620001528185602086016200020f565b6200015d81620002db565b840191505092915050565b6000602082019050818103600083015262000184818462000127565b905092915050565b600081519050919050565b600082825260208201905092915050565b6000620001b58262000205565b9150620001c28362000205565b9250827fffffffffffffffffffffffffffffffffffffffffffffffffffffffffffffffff03821115620001fa57620001f96200027d565b5b828201905092915050565b6000819050919050565b60005b838110156200022f57808201518184015260208101905062000212565b838111156200023f576000848401525b50505050565b6000620002528262000205565b91506200025f8362000205565b925082620002725762000271620002ac565b5b828206905092915050565b7f4e487b7100000000000000000000000000000000000000000000000000000000600052601160045260246000fd5b7f4e487b7100000000000000000000000000000000000000000000000000000000600052601260045260246000fd5b6000601f19601f8301169050919050565b610fa980620002fc6000396000f3fe60806040526004361061003f5760003560e01c80635b236d971461004457806380f03fa61461006f578063a42a46631461009a578063e86bdbb8146100d7575b600080fd5b34801561005057600080fd5b506100596100f3565b6040516100669190610ac0565b60405180910390f35b34801561007b57600080fd5b50610084610244565b6040516100919190610b74565b60405180910390f35b3480156100a657600080fd5b506100c160048036038101906100bc9190610851565b610251565b6040516100ce9190610b74565b60405180910390f35b6100f160048036038101906100ec919061087a565b610269565b005b60606001805480602002602001604051908101604052809291908181526020016000905b8282101561023b57838290600052602060002090600302016040518060600160405290816000820160009054906101000a900473ffffffffffffffffffffffffffffffffffffffff1673ffffffffffffffffffffffffffffffffffffffff1673ffffffffffffffffffffffffffffffffffffffff1681526020016001820180546101a090610d5a565b80601f01602080910402602001604051908101604052809291908181526020018280546101cc90610d5a565b80156102195780601f106101ee57610100808354040283529160200191610219565b820191906000526020600020905b8154815290600101906020018083116101fc57829003601f168201915b5050505050815260200160028201548152505081526020019060010190610117565b50505050905090565b6000600180549050905090565b60026020528060005260406000206000915090505481565b600160405180606001604052803373ffffffffffffffffffffffffffffffffffffffff16815260200183815260200142815250908060018154018082558091505060019003906000526020600020906003020160009091909190915060008201518160000160006101000a81548173ffffffffffffffffffffffffffffffffffffffff021916908373ffffffffffffffffffffffffffffffffffffffff1602179055506020820151816001019080519060200190610328929190610731565b506040820151816002015550506103746040518060400160405280601281526020017f25732073656e742061206d6573736167652e00000000000000000000000000008152503361066c565b3373ffffffffffffffffffffffffffffffffffffffff167f4302f7db7d1bf35eb172c360f71ecc4190107498ba1e26e46f440b981aad2f7742836040516103bc929190610b8f565b60405180910390a2606460005442446103d59190610c86565b6103df9190610c86565b6103e99190610dbd565b60008190555060326000541115801561044c575042603c600260003373ffffffffffffffffffffffffffffffffffffffff1673ffffffffffffffffffffffffffffffffffffffff1681526020019081526020016000205461044a9190610c86565b105b156105d05742600260003373ffffffffffffffffffffffffffffffffffffffff1673ffffffffffffffffffffffffffffffffffffffff168152602001908152602001600020819055506104d46040518060400160405280600781526020017f257320776f6e21000000000000000000000000000000000000000000000000008152503361066c565b6000655af3107a40009050478110610521576040517f08c379a000000000000000000000000000000000000000000000000000000000815260040161051890610b54565b60405180910390fd5b60003373ffffffffffffffffffffffffffffffffffffffff168260405161054790610aab565b60006040518083038185875af1925050503d8060008114610584576040519150601f19603f3d011682016040523d82523d6000602084013e610589565b606091505b50509050806105cd576040517f08c379a00000000000000000000000000000000000000000000000000000000081526004016105c490610b34565b60405180910390fd5b50505b50565b610669816040516024016105e79190610ae2565b6040516020818303038152906040527f41304fac000000000000000000000000000000000000000000000000000000007bffffffffffffffffffffffffffffffffffffffffffffffffffffffff19166020820180517bffffffffffffffffffffffffffffffffffffffffffffffffffffffff8381831617835250505050610708565b50565b6107048282604051602401610682929190610b04565b6040516020818303038152906040527f319af333000000000000000000000000000000000000000000000000000000007bffffffffffffffffffffffffffffffffffffffffffffffffffffffff19166020820180517bffffffffffffffffffffffffffffffffffffffffffffffffffffffff8381831617835250505050610708565b5050565b60008151905060006a636f6e736f6c652e6c6f679050602083016000808483855afa5050505050565b82805461073d90610d5a565b90600052602060002090601f01602090048101928261075f57600085556107a6565b82601f1061077857805160ff19168380011785556107a6565b828001600101855582156107a6579182015b828111156107a557825182559160200191906001019061078a565b5b5090506107b391906107b7565b5090565b5b808211156107d05760008160009055506001016107b8565b5090565b60006107e76107e284610be4565b610bbf565b9050828152602081018484840111156107ff57600080fd5b61080a848285610d18565b509392505050565b60008135905061082181610f5c565b92915050565b600082601f83011261083857600080fd5b81356108488482602086016107d4565b91505092915050565b60006020828403121561086357600080fd5b600061087184828501610812565b91505092915050565b60006020828403121561088c57600080fd5b600082013567ffffffffffffffff8111156108a657600080fd5b6108b284828501610827565b91505092915050565b60006108c78383610a3d565b905092915050565b6108d881610cdc565b82525050565b6108e781610cdc565b82525050565b60006108f882610c25565b6109028185610c48565b93508360208202850161091485610c15565b8060005b85811015610950578484038952815161093185826108bb565b945061093c83610c3b565b925060208a01995050600181019050610918565b50829750879550505050505092915050565b600061096d82610c30565b6109778185610c64565b9350610987818560208601610d27565b61099081610eaa565b840191505092915050565b60006109a682610c30565b6109b08185610c75565b93506109c0818560208601610d27565b6109c981610eaa565b840191505092915050565b60006109e1602783610c75565b91506109ec82610ebb565b604082019050919050565b6000610a04600083610c59565b9150610a0f82610f0a565b600082019050919050565b6000610a27603383610c75565b9150610a3282610f0d565b604082019050919050565b6000606083016000830151610a5560008601826108cf565b5060208301518482036020860152610a6d8282610962565b9150506040830151610a826040860182610a8d565b508091505092915050565b610a9681610d0e565b82525050565b610aa581610d0e565b82525050565b6000610ab6826109f7565b9150819050919050565b60006020820190508181036000830152610ada81846108ed565b905092915050565b60006020820190508181036000830152610afc818461099b565b905092915050565b60006040820190508181036000830152610b1e818561099b565b9050610b2d60208301846108de565b9392505050565b60006020820190508181036000830152610b4d816109d4565b9050919050565b60006020820190508181036000830152610b6d81610a1a565b9050919050565b6000602082019050610b896000830184610a9c565b92915050565b6000604082019050610ba46000830185610a9c565b8181036020830152610bb6818461099b565b90509392505050565b6000610bc9610bda565b9050610bd58282610d8c565b919050565b6000604051905090565b600067ffffffffffffffff821115610bff57610bfe610e7b565b5b610c0882610eaa565b9050602081019050919050565b6000819050602082019050919050565b600081519050919050565b600081519050919050565b6000602082019050919050565b600082825260208201905092915050565b600081905092915050565b600082825260208201905092915050565b600082825260208201905092915050565b6000610c9182610d0e565b9150610c9c83610d0e565b9250827fffffffffffffffffffffffffffffffffffffffffffffffffffffffffffffffff03821115610cd157610cd0610dee565b5b828201905092915050565b6000610ce782610cee565b9050919050565b600073ffffffffffffffffffffffffffffffffffffffff82169050919050565b6000819050919050565b82818337600083830152505050565b60005b83811015610d45578082015181840152602081019050610d2a565b83811115610d54576000848401525b50505050565b60006002820490506001821680610d7257607f821691505b60208210811415610d8657610d85610e4c565b5b50919050565b610d9582610eaa565b810181811067ffffffffffffffff82111715610db457610db3610e7b565b5b80604052505050565b6000610dc882610d0e565b9150610dd383610d0e565b925082610de357610de2610e1d565b5b828206905092915050565b7f4e487b7100000000000000000000000000000000000000000000000000000000600052601160045260246000fd5b7f4e487b7100000000000000000000000000000000000000000000000000000000600052601260045260246000fd5b7f4e487b7100000000000000000000000000000000000000000000000000000000600052602260045260246000fd5b7f4e487b7100000000000000000000000000000000000000000000000000000000600052604160045260246000fd5b6000601f19601f8301169050919050565b7f4661696c656420746f207769746864726177206d6f6e65792066726f6d20636f60008201527f6e74726163742e00000000000000000000000000000000000000000000000000602082015250565b50565b7f547279696e6720746f207769746864726177206d6f7265206d6f6e657920746860008201527f616e2074686520636f6e74726163742068617300000000000000000000000000602082015250565b610f6581610cdc565b8114610f7057600080fd5b5056fea2646970667358221220f338911385d0d3bd0b52918c0b5e6da6cbb8be71ee912443db2ffe7b8984213d64736f6c63430008040033456261742721205961207a616465706c6f696c20736d6172742d636f6e7472616374206e6120626c6f636b636861696e21",
  "linkReferences": {},
  "deployedLinkReferences": {}
}